:100000000C9467000C9484000C9484000C9484007D
:100010000C9484000C9484000C9484000C94840050
:100020000C9484000C9484000C9484000C94840040
:100030000C9484000C94B2040C9483040C948400FB
:100040000C9484000C9484000C9484000C94840020
:100050000C948400720372037203720372038803A8
:1000600088038A03740374037403740376037603AA
:10007000760376038803880378037803780378038C
:100080007803880388037A037A037A037A03880360
:10009000880388037C037C037C037C037C03880344
:1000A00088037E038003800380038003820382032E
:1000B0008203820388038803840384038403840304
:1000C000840388038803860386038603860311243A
:1000D0001FBECFE5D8E0DEBFCDBF10E0A0E6B0E0A8
:1000E000ECEFFEE002C005900D92A03DB107D9F7FC
:1000F00021E0A0EDB0E001C01D92A036B207E1F70B
:100100000E94D7010C947C070C940000D198D098E1
:100110003F983E9A3D9A319A329A309A379A08958A
:10012000389A39983A983B983C9897B18F70907F5D
:10013000982B97B9369A3699FECF85B10895FC0170
:100140007183608342831382148281E085831682E7
:100150000895FC01868181111AC08381A081B1813B
:10016000A80FB11D6C9315824381242F30E082814A
:1001700090E001972817390711F4138202C04F5FEE
:10018000438393818481981302C081E0868308951C
:10019000FC01858181111BC09481292F30E0A08151
:1001A000B181A20FB31F8C911682428150E0415061
:1001B00051092417350711F4148202C09F5F9483FC
:1001C00024819381291304C091E09583089580E0F0
:1001D0000895FC0185810895FC0186810895FF92B0
:1001E0000F931F93CF93DF93CDB7DEB72C970FB646
:1001F000F894DEBF0FBECDBFF82E062F142F80E679
:1002000090E00E94FB046F2DCE0101960E944505EF
:10021000CE0101960E94FB04602FCE0105960E943C
:100220004505CE0105960E94FB04612FCE0109967B
:100230000E944505CE0109960E94FB0482E690E0EB
:100240000E94FB042C960FB6F894DEBF0FBECDBF04
:10025000DF91CF911F910F91FF9008959F92AF92E0
:10026000BF92CF92DF92EF92FF920F931F93CF93A3
:10027000DF93CDB7DEB72F970FB6F894DEBF0FBE72
:10028000CDBF982EA62EB42E68017901C901B80100
:100290000E944D06162F0E949803692DCE010196EB
:1002A0000E94450584E690E00E946A04CE01019612
:1002B0000E946A04612FCE010D960E944505CE0171
:1002C0000D960E946A04612F70E080E090E00E9429
:1002D0007B069B01AC01C701B6010E94800520E0AE
:1002E00030E048EC52E40E9407070E944D06CE0120
:1002F0000E960E944505CE010E960E946A0489E67C
:1003000090E00E946A048CE690E00E946A046A2DE4
:10031000CE0105960E944505CE0105960E946A040D
:1003200081E790E00E946A046B2DCE0109960E943D
:100330004505CE0109960E946A042F960FB6F894DF
:10034000DEBF0FBECDBFDF91CF911F910F91FF9008
:10035000EF90DF90CF90BF90AF909F90089501975E
:1003600021F488B3856188BB089588B38A7E88BBF1
:100370006230710514F0C29A0895C2980895CF931F
:10038000DF93EC0161110EC083990CC081E0CD2B8D
:1003900009F080E0C82FD0E0839BFECFBA01CE01E8
:1003A0000E94AF018C2F9D2FDF91CF9108958B98E4
:1003B000939A87B38F6187BB0E94E4048FB78068EC
:1003C0008FBF0E948E030E94860081B7895F81BF24
:1003D0008A9A92982FEF84E39CE0215080409040CD
:1003E000E1F700C00000929A2FEF89E698E12150D2
:1003F00080409040E1F700C000002FEF89E698E1CF
:10040000215080409040E1F700C000002FEF89E6C6
:1004100098E1215080409040E1F700C000002FEFAC
:1004200089E698E1215080409040E1F700C000004B
:100430002FEF89E698E1215080409040E1F700C01D
:10044000000087E790E00E94FB040E943A052FE736
:100450008AE196E0215080409040E1F700C0000022
:1004600086E890E00E94FB040E943A052FE78AE1AB
:1004700096E0215080409040E1F700C0000080EB02
:1004800090E00E94FB040E943A05C0E0D0E00F2EED
:10049000F2E39F2EF02DC12CD12CA12CB12C83E0A6
:1004A0000E949000682F70E080E090E00E947B0640
:1004B0002BE432E044E55CE30E9407072FEA33E2D5
:1004C0004EE65EE30E94E505562E672E082F192F93
:1004D00083990EC082E00E9490008A3F19F0C230DA
:1004E000D105BCF1C114D10419F42196839BFECF30
:1004F000C230D10574F1C430D1050CF0E50181E0C2
:100500000E949000882E82E00E949000982E909485
:1005100080E00E9490008095823820F0782E770C41
:10052000739401C0712C492D672D882D0E94EF0016
:100530007601802F412F052D162D282F342F492D80
:10054000672D882D0E942E01BE01C6010E94AF01B9
:100550002BC081E00E949000782E82E00E949000E3
:10056000882E8094AE01682DC6010E94BF016C01E7
:100570008130910531F4492D682D872D0E94EF00BF
:1005800007C0009729F440E060E0872D0E94EF004B
:100590007601902F812F052D162D292F382F492DCB
:1005A000682D872D0E942E018FE798E321E081506E
:1005B00090402040E1F700C0000071CF85BB85E886
:1005C0008A95F1F70000DF9885E88A95F1F7000039
:1005D000DF9A0895DD9881E00E94DE028FE99FE0B6
:1005E0000197F1F700C00000DD9A0895813011F401
:1005F00082E001C080E0DD9884600E94DE02DD9A26
:100600000895813011F080E001C084E0613009F488
:100610008260413009F48160DD9888600E94DE02CA
:10062000DD9A0895CF93DF93C62FD42F98E395BB1F
:10063000DD98DE989FEF94BB9AB3906E9ABBEFE182
:10064000FEE43197F1F700C00000DF98EFE0F7E239
:100650003197F1F700C00000DF9AEFE0F7E2319741
:10066000F1F700C00000DF98E7ECF0E03197F1F718
:1006700000C00000DF9AE7ECF0E03197F1F700C02E
:100680000000DF98EFEFF5E03197F1F700C00000D0
:10069000DF9A0E94F6024D2F6C2F81E00E94010329
:1006A0000E94EA02DF91CF910895613011F090E04D
:1006B00001C090E4DD98890F80680E94DE02DD9A17
:1006C0000895DD9A803218F00E94DE02089590E0CD
:1006D000FC01E05CF109ED33F105D0F4E65DFF4F7C
:1006E0000C94760781E417C085E415C089E413C033
:1006F0008FE411C085E50FC081E60DC083E60BC015
:1007000085E609C089E607C08FE605C085E703C016
:1007100085EA01C083E40E94DE02089540E061E0C2
:1007200081E00E9412031092D0001092D10008952F
:100730000E94EA021092D00008958F700895829569
:100740008F7008951F93CF93DF93182FC091D0001F
:100750008C2F0E949F03D82F113049F4CF3118F00D
:100760001092D0000DC0CF5FC093D00009C0C1115E
:1007700004C08FE18093D00003C0C150C093D0006B
:100780008091D0000E949F0391E08D1301C090E002
:10079000892FDF91CF911F910895CF93DF938330FD
:1007A00049F120F4813081F098F40AC08530F1F1EC
:1007B00098F1863009F443C0873009F04BC045C03A
:1007C00081E00E94A20346C080E00E94A20342C0D2
:1007D000C091D0008C2F0E949F03811107C0C05F81
:1007E000C093D00081E08093D10034C0C051C09349
:1007F000D00030C0C091D0008C2F0E949F0388236E
:1008000039F0CF70C093D00081E08093D10022C036
:10081000C05FC093D0001EC08091D0000E949F0393
:100820008295807F815F8093D00014C08091D0003A
:100830000E949F038295807F8093D0000BC080919F
:10084000D0008F708093D00005C08091D000805F71
:100850008093D000C091D0008C2F0E949F03D82F8E
:100860008C2F0E949D036D2F0E945503DF91CF9125
:100870000895CF93DF93C82F803268F48A3019F03F
:100880008D3029F504C083E00E94CD0320C085E0AF
:100890000E94CD031CC08091D100813021F40E94C0
:1008A000EA021092D1008C2F0E94610381E00E9425
:1008B000A203813061F4C091D0008C2F0E949F036D
:1008C000D82F8C2F0E949D036D2F0E945503DF911E
:1008D000CF9108951F93CF93DF93EC0188818823F4
:1008E00051F010E00E9439041F5FFE01E10FF11D7D
:1008F00080818111F7CFDF91CF911F910895559A93
:100900000895559808951F920F920FB60F921124D3
:100910002F933F934F935F936F937F938F939F9307
:10092000AF93BF93EF93FF9382E591E00E94C800DD
:100930008CB982E591E00E94E900813011F40E94B7
:100940008104FF91EF91BF91AF919F918F917F9122
:100950006F915F914F913F912F910F900FBE0F902C
:100960001F9018951F920F920FB60F9211242F937C
:100970003F934F935F936F937F938F939F93AF9327
:10098000BF93EF93FF936CB189E591E00E94A900BA
:10099000FF91EF91BF91AF919F918F917F916F9157
:1009A0005F914F913F912F910F900FBE0F901F902D
:1009B0001895E82FF0E0EE0FFF1FE354FF4F808102
:1009C00089B9818180BD089586E880BD88E98AB9AA
:1009D0001BB840E462E171E089E591E00E949F006C
:1009E00040E462ED70E082E591E00E949F0082E0C9
:1009F0000E94D9040895FF920F931F93CF93DF9322
:100A00008C01FC018081882351F1F12C82E591E079
:100A10000E94EC008130D1F30E948104E801CF0DE7
:100A2000D11D888181110DC012C0688182E591E0DD
:100A30000E94A900F394E801CF0DD11D888188237D
:100A400031F082E591E00E94EC00882371F30E946E
:100A50007F04F801EF0DF11D80818111D7CFDF9167
:100A6000CF911F910F91FF90089582E591E00E9430
:100A7000E90008950E9435058823E1F308958A303E
:100A800010F4805D089580E00895BF92CF92DF92C8
:100A9000EF92FF920F931F93CF93DF938C01D62E8B
:100AA0000F2EF4E6EF2EF02DF12C0F2EFDECBF2EC5
:100AB000F02D8D2D6E2D0E946A07C82EE801CF0DF6
:100AC000D11D0E943F058883CE9CD0181124F39439
:100AD000EB9CE12C1124E694E694E69483E0F81272
:100AE000E8CFF801EF0DF11D10828F2DDF91CF912E
:100AF0001F910F91FF90EF90DF90CF90BF900895DE
:100B00005058BB27AA270ED048C139D130F03ED16A
:100B100020F031F49F3F11F41EF42EC10EF4E09545
:100B2000E7FB24C1E92F4AD180F3BA1762077307A4
:100B30008407950718F071F49EF562C10EF4E095F4
:100B40000B2EBA2FA02D0B01B90190010C01CA0187
:100B5000A0011124FF27591B99F0593F50F4503E32
:100B600068F11A16F040A22F232F342F4427585F24
:100B7000F3CF469537952795A795F0405395C9F73C
:100B80007EF41F16BA0B620B730B840BBAF09150F4
:100B9000A1F0FF0FBB1F661F771F881FC2F70EC093
:100BA000BA0F621F731F841F48F487957795679566
:100BB000B795F7959E3F08F0B3CF9395880F08F04F
:100BC0009927EE0F9795879508950CD0E6C0DED053
:100BD00040F0D5D030F021F45F3F19F0C7C051117B
:100BE00010C1CAC0EBD098F39923C9F35523B1F3D0
:100BF000951B550BBB27AA2762177307840738F08C
:100C00009F5F5F4F220F331F441FAA1FA9F333D0EA
:100C10000E2E3AF0E0E830D091505040E695001C9E
:100C2000CAF729D0FE2F27D0660F771F881FBB1F5A
:100C3000261737074807AB07B0E809F0BB0B802D34
:100C4000BF01FF2793585F4F2AF09E3F510568F080
:100C50008DC0D7C05F3FECF3983EDCF38695779567
:100C60006795B795F7959F5FC9F7880F911D969582
:100C7000879597F90895E1E0660F771F881FBB1FDE
:100C8000621773078407BA0720F0621B730B840B8B
:100C9000BA0BEE1F88F7E095089598D088F09F571B
:100CA00090F0B92F9927B751A0F0D1F0660F771FB8
:100CB000881F991F1AF0BA95C9F712C0B13081F098
:100CC0009FD0B1E008959CC0672F782F8827B85F28
:100CD00039F0B93FCCF3869577956795B395D9F7F9
:100CE0003EF490958095709561957F4F8F4F9F4F03
:100CF0000895E89409C097FB3EF49095809570950F
:100D000061957F4F8F4F9F4F9923A9F0F92F96E957
:100D1000BB279395F695879577956795B795F111CC
:100D2000F8CFFAF4BB0F11F460FF1BC06F5F7F4F69
:100D30008F4F9F4F16C0882311F096E911C077237B
:100D400021F09EE8872F762F05C0662371F096E884
:100D5000862F70E060E02AF09A95660F771F881F53
:100D6000DAF7880F9695879597F9089597F99F6711
:100D700080E870E060E008959FEF80EC0895002423
:100D80000A941616170618060906089500240A94F0
:100D900012161306140605060895092E0394000C76
:100DA00011F4882352F0BB0F40F4BF2B11F460FF05
:100DB00004C06F5F7F4F8F4F9F4F089557FD90582E
:100DC000440F551F59F05F3F71F04795880F97FB0F
:100DD000991F61F09F3F79F08795089512161306C9
:100DE0001406551FF2CF4695F1DF08C016161706F8
:100DF0001806991FF1CF869571056105089408952D
:100E0000E894BB2766277727CB0197F908950BD085
:100E1000C4CFB5DF28F0BADF18F0952309F0A6CFCC
:100E2000ABCF1124EECFCADFA0F3959FD1F3950F7E
:100E300050E0551F629FF001729FBB27F00DB11D5E
:100E4000639FAA27F00DB11DAA1F649F6627B00DEE
:100E5000A11D661F829F2227B00DA11D621F739FD7
:100E6000B00DA11D621F839FA00D611D221F749FE5
:100E70003327A00D611D231F849F600D211D822F2C
:100E8000762F6A2F11249F5750408AF0E1F0882373
:100E90004AF0EE0FFF1FBB1F661F771F881F915080
:100EA0005040A9F79E3F510570F060CFAACF5F3F39
:100EB000ECF3983EDCF3869577956795B795F795B3
:100EC000E7959F5FC1F7FE2B880F911D969587953B
:100ED00097F90895991B79E004C0991F961708F0B7
:100EE000961B881F7A95C9F780950895EE0FFF1F0E
:0C0EF0000590F491E02D0994F894FFCFD8
:100EFC005B005D004449523A000A0D0047415A3AE2
:100F0C0000205355533A0041542B4349504D4F4404
:100F1C00453D310D0A0041542B4349505354415225
:100F2C00543D22554450222C223139322E31363840
:100F3C002E342E31222C3130302C3132330D0A002C
:100F4C0041542B43495053454E440D0A00CF006782
:100F5C0000330019000C0006000300010001000022
:00000001FF
