:100000000C946F000C948C000C948C000C948C005D
:100010000C948C000C948C000C948C000C948C0030
:100020000C948C000C948C000C948C000C948C0020
:100030000C948C000C94DF030C94B1030C948C0092
:100040000C948C000C948C000C948C000C948C0000
:100050000C948C00EB02EB02EB02EB02EB02E902E8
:10006000E902D302D502D502D502D502D702D702C2
:10007000D702D702E902E902D902D902D902D9028C
:10008000D902E902E902DB02DB02DB02DB02E90260
:10009000E902E902DD02DD02DD02DD02DD02E90244
:1000A000E902DF02E102E102E102E102E302E3022E
:1000B000E302E302E902E902E502E502E502E50204
:1000C000E502E902E902E702E702E702E7022A03A2
:1000D0002E0332034103500356035C0362031124D1
:1000E0001FBECFE5D8E0DEBFCDBF10E0A0E6B0E098
:1000F000E6E4F9E002C005900D92A839B107D9F7FE
:1001000021E0A8E9B0E001C01D92A832B207E1F7F2
:100110000E94BC010C94A1040C940000D198D098CA
:100120003F983E9A3D9A319A329A309A379A08957A
:10013000389A39983A983B983C9897B1907F8F704D
:10014000892B87B9369A3699FECF85B10895FC017F
:100150007183608342831382148281E085831682D7
:100160000895FC01868181111AC08381A081B1812B
:10017000A80FB11D6C9315822381422F50E082811C
:1001800090E001974817590711F4138202C02F5FBE
:10019000238393818481981302C081E0868308952C
:1001A000FC01858181111BC09481492F50E0A08101
:1001B000B181A40FB51F8C911682228130E02150AD
:1001C00031094217530711F4148202C09F5F9483D0
:1001D00024819381291304C091E09583089580E0E0
:1001E0000895FC0185810895FC0186810895EF92B0
:1001F000FF920F931F93CF93DF93CDB7DEB72C976A
:100200000FB6F894DEBF0FBECDBFE82EF62E042F3A
:10021000122F80E690E00E9430046E2DCE010196F0
:100220000E946B04CE0101960E9430046F2DCE0116
:1002300005960E946B04CE0105960E943004602F43
:10024000CE0109960E946B04CE0109960E943004EB
:10025000812F0E94280482E690E00E9430042C96B0
:100260000FB6F894DEBF0FBECDBFDF91CF911F91C7
:100270000F91FF90EF900895DF92EF92FF920F930E
:100280001F93CF93DF93CDB7DEB72C970FB6F894BB
:10029000DEBF0FBECDBFD82EE62EF42E0E94F9028F
:1002A0006D2DCE0101960E946B0484E690E00E94C1
:1002B0009B03CE0101960E949B030130110529F496
:1002C00089E690E00E949B0304C080E790E00E94D2
:1002D0009B0387E790E00E949B038AE790E00E94DF
:1002E0009B036E2DCE0105960E946B04CE010596F0
:1002F0000E949B038FE790E00E949B036F2DCE012D
:1003000009960E946B04CE0109960E949B032C96CD
:100310000FB6F894DEBF0FBECDBFDF91CF911F9116
:100320000F91FF90EF90DF900895019721F488B32B
:10033000856188BB089588B38A7E88BB6230710569
:1003400014F0C29A0895C2980895CF93DF93EC01F8
:1003500061110EC083990CC081E0CD2B09F080E0C3
:10036000C82FD0E0839BFECFBA01CE010E94950139
:10037000CE01DF91CF9108958B98939A87B38F61C7
:1003800087BB0E9411048FB780688FBF0E94EF0265
:100390000E948E00E12CF12CD2E3C12CD12C839948
:1003A00013C082E00E9498008A3F31F022E0E216FA
:1003B000F1040CF05FC038C0C114D10429F48FEFF0
:1003C000E81AF80A839BFECF92E0E916F10464F183
:1003D00024E0E216F10414F0E12CF12C81E00E94FB
:1003E0009800B82E82E00E949800D82FD09580E027
:1003F0000E9498008095823820F0880FC1E0C80FD5
:1004000001C0C0E096014D2F6C2F8B2D0E94F7008C
:10041000860120E04D2F6C2F8B2D0E943C01B701EF
:10042000C6010E9495011CC081E00E949800B82E70
:1004300082E00E949800C82FC095A7016C2FC601CA
:100440000E94A5016C019C014D2F6C2F8B2D0E94E9
:10045000F700860120E04D2F6C2F8B2D0E943C0170
:100460008FE798E321E0815090402040E1F700C001
:10047000000095CFC114D10409F4A1CFA9CF85BB49
:1004800085E88A95F1F70000DF9885E88A95F1F70D
:100490000000DF9A0895DD9881E00E943F028FE915
:1004A0009FE00197F1F700C00000DD9A08958130C8
:1004B00011F080E001C082E0DD9884600E943F027C
:1004C000DD9A0895813011F484E001C080E061304C
:1004D00009F48260413009F48160DD9888600E94EF
:1004E0003F02DD9A0895CF93DF93C62FD42F98E370
:1004F00095BBDD98DE989FEF94BB9AB3906E9ABB44
:10050000EFE1FEE43197F1F700C00000DF98EFE083
:10051000F7E23197F1F700C00000DF9AEFE0F7E271
:100520003197F1F700C00000DF98E7ECF0E0319779
:10053000F1F700C00000DF9AE7ECF0E03197F1F747
:1005400000C00000DF98EFEFF5E03197F1F700C051
:100550000000DF9A0E9457024D2F6C2F81E00E940D
:1005600062020E944B02DF91CF910895613011F435
:1005700090E401C090E0DD98890F80680E943F02FE
:10058000DD9A0895DD9A803218F00E943F020895A6
:1005900090E0FC01E05CF109ED33F105D0F4E65D9B
:1005A000FF4F0C949B0483E417C085E415C089E4D5
:1005B00013C08FE411C085E50FC081E60DC083E64E
:1005C0000BC085E609C089E607C08FE605C085E750
:1005D00003C085EA01C081E40E943F02089540E023
:1005E00061E081E00E9473021092990010929800DD
:1005F00008950E944B0210929900089590919900DD
:10060000292F22952F70813049F49F3118F01092D4
:1006100099000DC09F5F9093990009C0911104C08B
:100620008FE18093990003C091509093990090912D
:10063000990092959F7081E0921301C080E0089527
:1006400090E08830910508F042C0FC01E959FF4F65
:100650000C949B0481E00E94FE0239C080E00E945D
:10066000FE0235C080919900803138F4805F80931C
:10067000990081E0809398002AC08051809399006E
:1006800026C080919900803138F08F708093990056
:1006900081E0809398001BC0805F8093990017C011
:1006A000809199008F608093990011C0809199008A
:1006B000807F809399000BC0809199008F70809308
:1006C000990005C080919900805F80939900809186
:1006D0009900682F62956F708F700E94B60208951E
:1006E000CF93C82F803268F48A3019F08D3029F00A
:1006F00020C083E00E9420031CC085E00E942003EC
:1007000018C080919800813021F40E944B02109211
:1007100098008C2F0E94C20281E00E94FE0281306C
:1007200041F480919900682F62956F708F700E94DC
:10073000B602CF9108950F931F93CF93FC01808150
:10074000882359F08F01C0E00E947003CF5FF80149
:10075000EC0FF11D80818111F7CFCF911F910F9187
:1007600008951F920F920FB60F9211242F933F936B
:100770004F935F936F937F938F939F93AF93BF93A9
:10078000EF93FF938AE990E00E94D0008CB98AE948
:1007900090E00E94F100813009F45598FF91EF91AB
:1007A000BF91AF919F918F917F916F915F914F9189
:1007B0003F912F910F900FBE0F901F9018951F9291
:1007C0000F920FB60F9211242F933F934F935F9385
:1007D0006F937F938F939F93AF93BF93EF93FF9309
:1007E0006CB181EA90E00E94B100FF91EF91BF915E
:1007F000AF919F918F917F916F915F914F913F91B9
:100800002F910F900FBE0F901F901895E82FF0E0DA
:10081000EE0FFF1FEB57FF4F808189B9818180BDAB
:10082000089586E880BD88E98AB91BB840E468EE7F
:1008300070E081EA90E00E94A70040E468EA70E07E
:100840008AE990E00E94A70082E00E9406040895D1
:100850005598682F8AE990E00E94B100559A089552
:10086000EF92FF920F931F93CF93FC0120812223DD
:1008700061F17C01C0E08AE990E00E94F4008130DF
:10088000D1F3559887010C0F111DF801808181115A
:100890000FC014C0F80160818AE990E00E94B100A5
:1008A000CF5F87010C0F111DF8019081992331F062
:1008B0008AE990E00E94F400882361F3559AF701D9
:1008C000EC0FF11D80818111D6CFCF911F910F9137
:1008D000FF90EF900895CF93DC01462FFC0124E6B2
:1008E00030E0C0E05DEC842F622F0E948F048A30DC
:1008F00018F490E3980F01C09C2F9193829F4019A8
:1009000011243F5F259F212D11242695269526959C
:10091000333049F713961C9283E0CF910895991BC9
:1009200079E004C0991F961708F0961B881F7A95E6
:10093000C9F780950895EE0FFF1F0590F491E02D03
:060940000994F894FFCFBA
:100946005B005D004449523A0020202020533100CC
:10095600202020205330000A0D0047415A3A00203B
:100966005355533A00CF006700330019000C0006B8
:08097600000300010001000074
:00000001FF
